{
  "_format": "hh-sol-artifact-1",
  "contractName": "FeeRequester",
  "sourceName": "contracts/FeeRequester.sol",
  "abi": [
    {
      "inputs": [],
      "stateMutability": "nonpayable",
      "type": "constructor"
    },
    {
      "anonymous": false,
      "inputs": [
        {
          "indexed": true,
          "internalType": "bytes32",
          "name": "id",
          "type": "bytes32"
        }
      ],
      "name": "ChainlinkCancelled",
      "type": "event"
    },
    {
      "anonymous": false,
      "inputs": [
        {
          "indexed": true,
          "internalType": "bytes32",
          "name": "id",
          "type": "bytes32"
        }
      ],
      "name": "ChainlinkFulfilled",
      "type": "event"
    },
    {
      "anonymous": false,
      "inputs": [
        {
          "indexed": true,
          "internalType": "bytes32",
          "name": "id",
          "type": "bytes32"
        }
      ],
      "name": "ChainlinkRequested",
      "type": "event"
    },
    {
      "anonymous": false,
      "inputs": [
        {
          "indexed": true,
          "internalType": "bytes32",
          "name": "requestId",
          "type": "bytes32"
        },
        {
          "indexed": false,
          "internalType": "uint256",
          "name": "fee",
          "type": "uint256"
        }
      ],
      "name": "RequestFeeCompleted",
      "type": "event"
    },
    {
      "inputs": [
        {
          "internalType": "bytes32",
          "name": "_requestId",
          "type": "bytes32"
        },
        {
          "internalType": "uint256",
          "name": "_fee",
          "type": "uint256"
        }
      ],
      "name": "fulfill",
      "outputs": [],
      "stateMutability": "nonpayable",
      "type": "function"
    },
    {
      "inputs": [],
      "name": "requestFee",
      "outputs": [],
      "stateMutability": "nonpayable",
      "type": "function"
    },
    {
      "inputs": [],
      "name": "returnedFee",
      "outputs": [
        {
          "internalType": "uint256",
          "name": "",
          "type": "uint256"
        }
      ],
      "stateMutability": "view",
      "type": "function"
    }
  ],
  "bytecode": "0x6080604052600160045534801561001557600080fd5b5061003973326c977e6efc84e512bb9c30f76e30c160ed06fb61006160201b60201c565b61005c736090149792daaee9d1d568c9f9a6f6b46aa29efd6100a560201b60201c565b6100e9565b80600260006101000a81548173ffffffffffffffffffffffffffffffffffffffff021916908373ffffffffffffffffffffffffffffffffffffffff16021790555050565b80600360006101000a81548173ffffffffffffffffffffffffffffffffffffffff021916908373ffffffffffffffffffffffffffffffffffffffff16021790555050565b61144e806100f86000396000f3fe608060405234801561001057600080fd5b50600436106100415760003560e01c80634357855e146100465780637490915d14610062578063eb2e578b14610080575b600080fd5b610060600480360381019061005b9190610c1e565b61008a565b005b61006a6101d3565b6040516100779190610e76565b60405180910390f35b6100886101d9565b005b816005600082815260200190815260200160002060009054906101000a900473ffffffffffffffffffffffffffffffffffffffff1673ffffffffffffffffffffffffffffffffffffffff163373ffffffffffffffffffffffffffffffffffffffff161461012c576040517f08c379a000000000000000000000000000000000000000000000000000000000815260040161012390610e56565b60405180910390fd5b6005600082815260200190815260200160002060006101000a81549073ffffffffffffffffffffffffffffffffffffffff0219169055807f7cc135e0cebb02c3480ae5d74d377283180a2601f8f644edf7987b009316c63a60405160405180910390a281600681905550827f3553ceb184ac90afe321a9628e5acf1c41927564b5e333d96616493a6d48ae07836040516101c69190610e76565b60405180910390a2505050565b60065481565b600061020d7f636139383336366363373331343935376238633031326337326630356165656230634357855e60e01b61031b565b90506102716040518060400160405280600381526020017f67657400000000000000000000000000000000000000000000000000000000008152506040518060800160405280604e81526020016113cb604e91398361034c9092919063ffffffff16565b6102f06040518060400160405280600481526020017f70617468000000000000000000000000000000000000000000000000000000008152506040518060400160405280600381526020017f66656500000000000000000000000000000000000000000000000000000000008152508361034c9092919063ffffffff16565b610317736090149792daaee9d1d568c9f9a6f6b46aa29efd8267016345785d8a000061037f565b5050565b610323610b2b565b61032b610b2b565b6103428585858461044b909392919063ffffffff16565b9150509392505050565b6103638284608001516104fb90919063ffffffff16565b61037a8184608001516104fb90919063ffffffff16565b505050565b60008060045490506001816103949190610ebe565b6004819055506000634042994660e01b60008087600001513089604001518760018c60800151600001516040516024016103d5989796959493929190610d73565b604051602081830303815290604052907bffffffffffffffffffffffffffffffffffffffffffffffffffffffff19166020820180517bffffffffffffffffffffffffffffffffffffffffffffffffffffffff8381831617835250505050905061044086838684610520565b925050509392505050565b610453610b2b565b61046385608001516101006106c4565b508385600001818152505082856020019073ffffffffffffffffffffffffffffffffffffffff16908173ffffffffffffffffffffffffffffffffffffffff16815250508185604001907bffffffffffffffffffffffffffffffffffffffffffffffffffffffff191690817bffffffffffffffffffffffffffffffffffffffffffffffffffffffff191681525050849050949350505050565b610508826003835161072e565b61051b81836108b390919063ffffffff16565b505050565b60003084604051602001610535929190610d47565b604051602081830303815290604052805190602001209050846005600083815260200190815260200160002060006101000a81548173ffffffffffffffffffffffffffffffffffffffff021916908373ffffffffffffffffffffffffffffffffffffffff160217905550807fb5e6e01e79f91267dc17b4e6314d5d4d03593d2ceee0fbb452b750bd70ea5af960405160405180910390a2600260009054906101000a900473ffffffffffffffffffffffffffffffffffffffff1673ffffffffffffffffffffffffffffffffffffffff16634000aea08685856040518463ffffffff1660e01b815260040161062b93929190610df8565b602060405180830381600087803b15801561064557600080fd5b505af1158015610659573d6000803e3d6000fd5b505050506040513d601f19601f8201168201806040525081019061067d9190610bf1565b6106bc576040517f08c379a00000000000000000000000000000000000000000000000000000000081526004016106b390610e36565b60405180910390fd5b949350505050565b6106cc610b98565b60006020836106db9190611228565b14610707576020826106ed9190611228565b60206106f991906110df565b826107049190610ebe565b91505b81836020018181525050604051808452600081528281016020016040525082905092915050565b60178167ffffffffffffffff16116107655761075f8160058460ff16901b60ff1617846108d590919063ffffffff16565b506108ae565b60ff8167ffffffffffffffff16116107bb57610794601860058460ff16901b17846108d590919063ffffffff16565b506107b58167ffffffffffffffff166001856108f59092919063ffffffff16565b506108ad565b61ffff8167ffffffffffffffff1611610812576107eb601960058460ff16901b17846108d590919063ffffffff16565b5061080c8167ffffffffffffffff166002856108f59092919063ffffffff16565b506108ac565b63ffffffff8167ffffffffffffffff161161086b57610844601a60058460ff16901b17846108d590919063ffffffff16565b506108658167ffffffffffffffff166004856108f59092919063ffffffff16565b506108ab565b610888601b60058460ff16901b17846108d590919063ffffffff16565b506108a98167ffffffffffffffff166008856108f59092919063ffffffff16565b505b5b5b5b505050565b6108bb610b98565b6108cd83846000015151848551610917565b905092915050565b6108dd610b98565b6108ed8384600001515184610a06565b905092915050565b6108fd610b98565b61090e848560000151518585610a5d565b90509392505050565b61091f610b98565b825182111561092d57600080fd5b8460200151828561093e9190610ebe565b1115610973576109728560026109638860200151888761095e9190610ebe565b610aeb565b61096d9190611085565b610b07565b5b6000808651805187602083010193508088870111156109925787860182525b60208701925050505b602084106109d957805182526020826109b49190610ebe565b91506020816109c39190610ebe565b90506020846109d291906110df565b935061099b565b60006001856020036101000a03905080198251168184511681811785525050508692505050949350505050565b610a0e610b98565b83602001518310610a3457610a338460028660200151610a2e9190611085565b610b07565b5b8351805160208583010184815381861415610a50576001820183525b5050508390509392505050565b610a65610b98565b84602001518483610a769190610ebe565b1115610a9e57610a9d8560028685610a8e9190610ebe565b610a989190611085565b610b07565b5b6000600183610100610ab09190610f67565b610aba91906110df565b90508551838682010185831982511617815281518588011115610add5784870182525b505085915050949350505050565b600081831115610afd57829050610b01565b8190505b92915050565b600082600001519050610b1a83836106c4565b50610b2583826108b3565b50505050565b6040518060a0016040528060008019168152602001600073ffffffffffffffffffffffffffffffffffffffff16815260200160007bffffffffffffffffffffffffffffffffffffffffffffffffffffffff1916815260200160008152602001610b92610b98565b81525090565b604051806040016040528060608152602001600081525090565b600081519050610bc181611385565b92915050565b600081359050610bd68161139c565b92915050565b600081359050610beb816113b3565b92915050565b600060208284031215610c0757610c066112b7565b5b6000610c1584828501610bb2565b91505092915050565b60008060408385031215610c3557610c346112b7565b5b6000610c4385828601610bc7565b9250506020610c5485828601610bdc565b9150509250929050565b610c6781611113565b82525050565b610c7681611131565b82525050565b610c858161113b565b82525050565b6000610c9682610e91565b610ca08185610e9c565b9350610cb08185602086016111c7565b610cb9816112bc565b840191505092915050565b610cd5610cd082611191565b6111fa565b82525050565b6000610ce8602383610ead565b9150610cf3826112e7565b604082019050919050565b6000610d0b602883610ead565b9150610d1682611336565b604082019050919050565b610d2a81611187565b82525050565b610d41610d3c82611187565b61121e565b82525050565b6000610d538285610cc4565b601482019150610d638284610d30565b6020820191508190509392505050565b600061010082019050610d89600083018b610c5e565b610d96602083018a610d21565b610da36040830189610c6d565b610db06060830188610c5e565b610dbd6080830187610c7c565b610dca60a0830186610d21565b610dd760c0830185610d21565b81810360e0830152610de98184610c8b565b90509998505050505050505050565b6000606082019050610e0d6000830186610c5e565b610e1a6020830185610d21565b8181036040830152610e2c8184610c8b565b9050949350505050565b60006020820190508181036000830152610e4f81610cdb565b9050919050565b60006020820190508181036000830152610e6f81610cfe565b9050919050565b6000602082019050610e8b6000830184610d21565b92915050565b600081519050919050565b600082825260208201905092915050565b600082825260208201905092915050565b6000610ec982611187565b9150610ed483611187565b9250827fffffffffffffffffffffffffffffffffffffffffffffffffffffffffffffffff03821115610f0957610f08611259565b5b828201905092915050565b6000808291508390505b6001851115610f5e57808604811115610f3a57610f39611259565b5b6001851615610f495780820291505b8081029050610f57856112da565b9450610f1e565b94509492505050565b6000610f7282611187565b9150610f7d83611187565b9250610faa7fffffffffffffffffffffffffffffffffffffffffffffffffffffffffffffffff8484610fb2565b905092915050565b600082610fc2576001905061107e565b81610fd0576000905061107e565b8160018114610fe65760028114610ff05761101f565b600191505061107e565b60ff84111561100257611001611259565b5b8360020a91508482111561101957611018611259565b5b5061107e565b5060208310610133831016604e8410600b84101617156110545782820a90508381111561104f5761104e611259565b5b61107e565b6110618484846001610f14565b9250905081840481111561107857611077611259565b5b81810290505b9392505050565b600061109082611187565b915061109b83611187565b9250817fffffffffffffffffffffffffffffffffffffffffffffffffffffffffffffffff04831182151516156110d4576110d3611259565b5b828202905092915050565b60006110ea82611187565b91506110f583611187565b92508282101561110857611107611259565b5b828203905092915050565b600061111e82611167565b9050919050565b60008115159050919050565b6000819050919050565b60007fffffffff0000000000000000000000000000000000000000000000000000000082169050919050565b600073ffffffffffffffffffffffffffffffffffffffff82169050919050565b6000819050919050565b600061119c826111a3565b9050919050565b60006111ae826111b5565b9050919050565b60006111c082611167565b9050919050565b60005b838110156111e55780820151818401526020810190506111ca565b838111156111f4576000848401525b50505050565b60006112058261120c565b9050919050565b6000611217826112cd565b9050919050565b6000819050919050565b600061123382611187565b915061123e83611187565b92508261124e5761124d611288565b5b828206905092915050565b7f4e487b7100000000000000000000000000000000000000000000000000000000600052601160045260246000fd5b7f4e487b7100000000000000000000000000000000000000000000000000000000600052601260045260246000fd5b600080fd5b6000601f19601f8301169050919050565b60008160601b9050919050565b60008160011c9050919050565b7f756e61626c6520746f207472616e73666572416e6443616c6c20746f206f726160008201527f636c650000000000000000000000000000000000000000000000000000000000602082015250565b7f536f75726365206d75737420626520746865206f7261636c65206f662074686560008201527f2072657175657374000000000000000000000000000000000000000000000000602082015250565b61138e81611125565b811461139957600080fd5b50565b6113a581611131565b81146113b057600080fd5b50565b6113bc81611187565b81146113c757600080fd5b5056fe68747470733a2f2f356561322d323030312d3561382d343630362d386530302d393162652d353734382d636135382d643338322e6e67726f6b2d667265652e6170702f636f6d707574652d666565a26469706673582212207837df5ab296d42a3689619361769c2847afee6a311af8432d114c2470cdf32764736f6c63430008070033",
  "linkReferences": {},
  "deployedLinkReferences": {}
}