{
  "_format": "hh-sol-artifact-1",
  "contractName": "FeeRequester",
  "sourceName": "contracts/FeeRequester.sol",
  "abi": [
    {
      "inputs": [
        {
          "internalType": "address",
          "name": "_oracle",
          "type": "address"
        },
        {
          "internalType": "bytes32",
          "name": "_jobId",
          "type": "bytes32"
        },
        {
          "internalType": "uint256",
          "name": "_fee",
          "type": "uint256"
        },
        {
          "internalType": "address",
          "name": "_linkToken",
          "type": "address"
        }
      ],
      "stateMutability": "nonpayable",
      "type": "constructor"
    },
    {
      "anonymous": false,
      "inputs": [
        {
          "indexed": true,
          "internalType": "bytes32",
          "name": "id",
          "type": "bytes32"
        }
      ],
      "name": "ChainlinkCancelled",
      "type": "event"
    },
    {
      "anonymous": false,
      "inputs": [
        {
          "indexed": true,
          "internalType": "bytes32",
          "name": "id",
          "type": "bytes32"
        }
      ],
      "name": "ChainlinkFulfilled",
      "type": "event"
    },
    {
      "anonymous": false,
      "inputs": [
        {
          "indexed": true,
          "internalType": "bytes32",
          "name": "id",
          "type": "bytes32"
        }
      ],
      "name": "ChainlinkRequested",
      "type": "event"
    },
    {
      "anonymous": false,
      "inputs": [
        {
          "indexed": false,
          "internalType": "uint256",
          "name": "fee",
          "type": "uint256"
        }
      ],
      "name": "FeeReturned",
      "type": "event"
    },
    {
      "inputs": [
        {
          "internalType": "bytes32",
          "name": "_requestId",
          "type": "bytes32"
        },
        {
          "internalType": "uint256",
          "name": "_fee",
          "type": "uint256"
        }
      ],
      "name": "fulfill",
      "outputs": [],
      "stateMutability": "nonpayable",
      "type": "function"
    },
    {
      "inputs": [],
      "name": "requestFee",
      "outputs": [],
      "stateMutability": "nonpayable",
      "type": "function"
    },
    {
      "inputs": [],
      "name": "returnedFee",
      "outputs": [
        {
          "internalType": "uint256",
          "name": "",
          "type": "uint256"
        }
      ],
      "stateMutability": "view",
      "type": "function"
    }
  ],
  "bytecode": "0x608060405260016004553480156200001657600080fd5b50604051620016973803806200169783398181016040528101906200003c919062000143565b6200004d846200007660201b60201c565b82600781905550816008819055506200006c81620000ba60201b60201c565b5050505062000250565b80600360006101000a81548173ffffffffffffffffffffffffffffffffffffffff021916908373ffffffffffffffffffffffffffffffffffffffff16021790555050565b80600260006101000a81548173ffffffffffffffffffffffffffffffffffffffff021916908373ffffffffffffffffffffffffffffffffffffffff16021790555050565b6000815190506200010f8162000202565b92915050565b60008151905062000126816200021c565b92915050565b6000815190506200013d8162000236565b92915050565b6000806000806080858703121562000160576200015f620001fd565b5b60006200017087828801620000fe565b9450506020620001838782880162000115565b935050604062000196878288016200012c565b9250506060620001a987828801620000fe565b91505092959194509250565b6000620001c282620001d3565b9050919050565b6000819050919050565b600073ffffffffffffffffffffffffffffffffffffffff82169050919050565b6000819050919050565b600080fd5b6200020d81620001b5565b81146200021957600080fd5b50565b6200022781620001c9565b81146200023357600080fd5b50565b6200024181620001f3565b81146200024d57600080fd5b50565b61143780620002606000396000f3fe608060405234801561001057600080fd5b50600436106100415760003560e01c80634357855e146100465780637490915d14610062578063eb2e578b14610080575b600080fd5b610060600480360381019061005b9190610c07565b61008a565b005b61006a6101d2565b6040516100779190610e5f565b60405180910390f35b6100886101d8565b005b816005600082815260200190815260200160002060009054906101000a900473ffffffffffffffffffffffffffffffffffffffff1673ffffffffffffffffffffffffffffffffffffffff163373ffffffffffffffffffffffffffffffffffffffff161461012c576040517f08c379a000000000000000000000000000000000000000000000000000000000815260040161012390610e3f565b60405180910390fd5b6005600082815260200190815260200160002060006101000a81549073ffffffffffffffffffffffffffffffffffffffff0219169055807f7cc135e0cebb02c3480ae5d74d377283180a2601f8f644edf7987b009316c63a60405160405180910390a2816009819055507f57af73a8228296325415dd1fe487e9121c37b9bb5b11828bc2387634220ff2cb826040516101c59190610e5f565b60405180910390a1505050565b60095481565b60006101ee60075430634357855e60e01b610304565b90506102526040518060400160405280600381526020017f67657400000000000000000000000000000000000000000000000000000000008152506040518060800160405280604e81526020016113b4604e9139836103359092919063ffffffff16565b6102d16040518060400160405280600481526020017f70617468000000000000000000000000000000000000000000000000000000008152506040518060400160405280600381526020017f6665650000000000000000000000000000000000000000000000000000000000815250836103359092919063ffffffff16565b610300600660009054906101000a900473ffffffffffffffffffffffffffffffffffffffff1682600854610368565b5050565b61030c610b14565b610314610b14565b61032b85858584610434909392919063ffffffff16565b9150509392505050565b61034c8284608001516104e490919063ffffffff16565b6103638184608001516104e490919063ffffffff16565b505050565b600080600454905060018161037d9190610ea7565b6004819055506000634042994660e01b60008087600001513089604001518760018c60800151600001516040516024016103be989796959493929190610d5c565b604051602081830303815290604052907bffffffffffffffffffffffffffffffffffffffffffffffffffffffff19166020820180517bffffffffffffffffffffffffffffffffffffffffffffffffffffffff8381831617835250505050905061042986838684610509565b925050509392505050565b61043c610b14565b61044c85608001516101006106ad565b508385600001818152505082856020019073ffffffffffffffffffffffffffffffffffffffff16908173ffffffffffffffffffffffffffffffffffffffff16815250508185604001907bffffffffffffffffffffffffffffffffffffffffffffffffffffffff191690817bffffffffffffffffffffffffffffffffffffffffffffffffffffffff191681525050849050949350505050565b6104f18260038351610717565b610504818361089c90919063ffffffff16565b505050565b6000308460405160200161051e929190610d30565b604051602081830303815290604052805190602001209050846005600083815260200190815260200160002060006101000a81548173ffffffffffffffffffffffffffffffffffffffff021916908373ffffffffffffffffffffffffffffffffffffffff160217905550807fb5e6e01e79f91267dc17b4e6314d5d4d03593d2ceee0fbb452b750bd70ea5af960405160405180910390a2600260009054906101000a900473ffffffffffffffffffffffffffffffffffffffff1673ffffffffffffffffffffffffffffffffffffffff16634000aea08685856040518463ffffffff1660e01b815260040161061493929190610de1565b602060405180830381600087803b15801561062e57600080fd5b505af1158015610642573d6000803e3d6000fd5b505050506040513d601f19601f820116820180604052508101906106669190610bda565b6106a5576040517f08c379a000000000000000000000000000000000000000000000000000000000815260040161069c90610e1f565b60405180910390fd5b949350505050565b6106b5610b81565b60006020836106c49190611211565b146106f0576020826106d69190611211565b60206106e291906110c8565b826106ed9190610ea7565b91505b81836020018181525050604051808452600081528281016020016040525082905092915050565b60178167ffffffffffffffff161161074e576107488160058460ff16901b60ff1617846108be90919063ffffffff16565b50610897565b60ff8167ffffffffffffffff16116107a45761077d601860058460ff16901b17846108be90919063ffffffff16565b5061079e8167ffffffffffffffff166001856108de9092919063ffffffff16565b50610896565b61ffff8167ffffffffffffffff16116107fb576107d4601960058460ff16901b17846108be90919063ffffffff16565b506107f58167ffffffffffffffff166002856108de9092919063ffffffff16565b50610895565b63ffffffff8167ffffffffffffffff16116108545761082d601a60058460ff16901b17846108be90919063ffffffff16565b5061084e8167ffffffffffffffff166004856108de9092919063ffffffff16565b50610894565b610871601b60058460ff16901b17846108be90919063ffffffff16565b506108928167ffffffffffffffff166008856108de9092919063ffffffff16565b505b5b5b5b505050565b6108a4610b81565b6108b683846000015151848551610900565b905092915050565b6108c6610b81565b6108d683846000015151846109ef565b905092915050565b6108e6610b81565b6108f7848560000151518585610a46565b90509392505050565b610908610b81565b825182111561091657600080fd5b846020015182856109279190610ea7565b111561095c5761095b85600261094c886020015188876109479190610ea7565b610ad4565b610956919061106e565b610af0565b5b60008086518051876020830101935080888701111561097b5787860182525b60208701925050505b602084106109c2578051825260208261099d9190610ea7565b91506020816109ac9190610ea7565b90506020846109bb91906110c8565b9350610984565b60006001856020036101000a03905080198251168184511681811785525050508692505050949350505050565b6109f7610b81565b83602001518310610a1d57610a1c8460028660200151610a17919061106e565b610af0565b5b8351805160208583010184815381861415610a39576001820183525b5050508390509392505050565b610a4e610b81565b84602001518483610a5f9190610ea7565b1115610a8757610a868560028685610a779190610ea7565b610a81919061106e565b610af0565b5b6000600183610100610a999190610f50565b610aa391906110c8565b90508551838682010185831982511617815281518588011115610ac65784870182525b505085915050949350505050565b600081831115610ae657829050610aea565b8190505b92915050565b600082600001519050610b0383836106ad565b50610b0e838261089c565b50505050565b6040518060a0016040528060008019168152602001600073ffffffffffffffffffffffffffffffffffffffff16815260200160007bffffffffffffffffffffffffffffffffffffffffffffffffffffffff1916815260200160008152602001610b7b610b81565b81525090565b604051806040016040528060608152602001600081525090565b600081519050610baa8161136e565b92915050565b600081359050610bbf81611385565b92915050565b600081359050610bd48161139c565b92915050565b600060208284031215610bf057610bef6112a0565b5b6000610bfe84828501610b9b565b91505092915050565b60008060408385031215610c1e57610c1d6112a0565b5b6000610c2c85828601610bb0565b9250506020610c3d85828601610bc5565b9150509250929050565b610c50816110fc565b82525050565b610c5f8161111a565b82525050565b610c6e81611124565b82525050565b6000610c7f82610e7a565b610c898185610e85565b9350610c998185602086016111b0565b610ca2816112a5565b840191505092915050565b610cbe610cb98261117a565b6111e3565b82525050565b6000610cd1602383610e96565b9150610cdc826112d0565b604082019050919050565b6000610cf4602883610e96565b9150610cff8261131f565b604082019050919050565b610d1381611170565b82525050565b610d2a610d2582611170565b611207565b82525050565b6000610d3c8285610cad565b601482019150610d4c8284610d19565b6020820191508190509392505050565b600061010082019050610d72600083018b610c47565b610d7f602083018a610d0a565b610d8c6040830189610c56565b610d996060830188610c47565b610da66080830187610c65565b610db360a0830186610d0a565b610dc060c0830185610d0a565b81810360e0830152610dd28184610c74565b90509998505050505050505050565b6000606082019050610df66000830186610c47565b610e036020830185610d0a565b8181036040830152610e158184610c74565b9050949350505050565b60006020820190508181036000830152610e3881610cc4565b9050919050565b60006020820190508181036000830152610e5881610ce7565b9050919050565b6000602082019050610e746000830184610d0a565b92915050565b600081519050919050565b600082825260208201905092915050565b600082825260208201905092915050565b6000610eb282611170565b9150610ebd83611170565b9250827fffffffffffffffffffffffffffffffffffffffffffffffffffffffffffffffff03821115610ef257610ef1611242565b5b828201905092915050565b6000808291508390505b6001851115610f4757808604811115610f2357610f22611242565b5b6001851615610f325780820291505b8081029050610f40856112c3565b9450610f07565b94509492505050565b6000610f5b82611170565b9150610f6683611170565b9250610f937fffffffffffffffffffffffffffffffffffffffffffffffffffffffffffffffff8484610f9b565b905092915050565b600082610fab5760019050611067565b81610fb95760009050611067565b8160018114610fcf5760028114610fd957611008565b6001915050611067565b60ff841115610feb57610fea611242565b5b8360020a91508482111561100257611001611242565b5b50611067565b5060208310610133831016604e8410600b841016171561103d5782820a90508381111561103857611037611242565b5b611067565b61104a8484846001610efd565b9250905081840481111561106157611060611242565b5b81810290505b9392505050565b600061107982611170565b915061108483611170565b9250817fffffffffffffffffffffffffffffffffffffffffffffffffffffffffffffffff04831182151516156110bd576110bc611242565b5b828202905092915050565b60006110d382611170565b91506110de83611170565b9250828210156110f1576110f0611242565b5b828203905092915050565b600061110782611150565b9050919050565b60008115159050919050565b6000819050919050565b60007fffffffff0000000000000000000000000000000000000000000000000000000082169050919050565b600073ffffffffffffffffffffffffffffffffffffffff82169050919050565b6000819050919050565b60006111858261118c565b9050919050565b60006111978261119e565b9050919050565b60006111a982611150565b9050919050565b60005b838110156111ce5780820151818401526020810190506111b3565b838111156111dd576000848401525b50505050565b60006111ee826111f5565b9050919050565b6000611200826112b6565b9050919050565b6000819050919050565b600061121c82611170565b915061122783611170565b92508261123757611236611271565b5b828206905092915050565b7f4e487b7100000000000000000000000000000000000000000000000000000000600052601160045260246000fd5b7f4e487b7100000000000000000000000000000000000000000000000000000000600052601260045260246000fd5b600080fd5b6000601f19601f8301169050919050565b60008160601b9050919050565b60008160011c9050919050565b7f756e61626c6520746f207472616e73666572416e6443616c6c20746f206f726160008201527f636c650000000000000000000000000000000000000000000000000000000000602082015250565b7f536f75726365206d75737420626520746865206f7261636c65206f662074686560008201527f2072657175657374000000000000000000000000000000000000000000000000602082015250565b6113778161110e565b811461138257600080fd5b50565b61138e8161111a565b811461139957600080fd5b50565b6113a581611170565b81146113b057600080fd5b5056fe68747470733a2f2f356561322d323030312d3561382d343630362d386530302d393162652d353734382d636135382d643338322e6e67726f6b2d667265652e6170702f636f6d707574652d666565a264697066735822122002d5ed40a111e30ea7e2b6511ec2c6c8032c581074228134bf15c8228e11730464736f6c63430008070033",
  "linkReferences": {},
  "deployedLinkReferences": {}
}