{
  "_format": "hh-sol-artifact-1",
  "contractName": "FeeRequester",
  "sourceName": "contracts/FeeRequester.sol",
  "abi": [
    {
      "inputs": [],
      "stateMutability": "nonpayable",
      "type": "constructor"
    },
    {
      "anonymous": false,
      "inputs": [
        {
          "indexed": true,
          "internalType": "bytes32",
          "name": "id",
          "type": "bytes32"
        }
      ],
      "name": "ChainlinkCancelled",
      "type": "event"
    },
    {
      "anonymous": false,
      "inputs": [
        {
          "indexed": true,
          "internalType": "bytes32",
          "name": "id",
          "type": "bytes32"
        }
      ],
      "name": "ChainlinkFulfilled",
      "type": "event"
    },
    {
      "anonymous": false,
      "inputs": [
        {
          "indexed": true,
          "internalType": "bytes32",
          "name": "id",
          "type": "bytes32"
        }
      ],
      "name": "ChainlinkRequested",
      "type": "event"
    },
    {
      "anonymous": false,
      "inputs": [
        {
          "indexed": false,
          "internalType": "uint256",
          "name": "fee",
          "type": "uint256"
        }
      ],
      "name": "FeeCalculated",
      "type": "event"
    },
    {
      "inputs": [
        {
          "internalType": "bytes32",
          "name": "_requestId",
          "type": "bytes32"
        },
        {
          "internalType": "uint256",
          "name": "_fee",
          "type": "uint256"
        }
      ],
      "name": "fulfill",
      "outputs": [],
      "stateMutability": "nonpayable",
      "type": "function"
    },
    {
      "inputs": [
        {
          "internalType": "uint256",
          "name": "amountUSD",
          "type": "uint256"
        },
        {
          "internalType": "uint256",
          "name": "priceDiff",
          "type": "uint256"
        },
        {
          "internalType": "uint256",
          "name": "std",
          "type": "uint256"
        }
      ],
      "name": "requestFeeWithParameters",
      "outputs": [],
      "stateMutability": "nonpayable",
      "type": "function"
    },
    {
      "inputs": [],
      "name": "returnedFee",
      "outputs": [
        {
          "internalType": "uint256",
          "name": "",
          "type": "uint256"
        }
      ],
      "stateMutability": "view",
      "type": "function"
    }
  ],
  "bytecode": "0x6080604052600160045534801561001557600080fd5b5061003973326c977e6efc84e512bb9c30f76e30c160ed06fb61006160201b60201c565b61005c736090149792daaee9d1d568c9f9a6f6b46aa29efd6100a560201b60201c565b6100e9565b80600260006101000a81548173ffffffffffffffffffffffffffffffffffffffff021916908373ffffffffffffffffffffffffffffffffffffffff16021790555050565b80600360006101000a81548173ffffffffffffffffffffffffffffffffffffffff021916908373ffffffffffffffffffffffffffffffffffffffff16021790555050565b611660806100f86000396000f3fe608060405234801561001057600080fd5b50600436106100415760003560e01c80634357855e146100465780637490915d14610062578063ec81017214610080575b600080fd5b610060600480360381019061005b9190610ddd565b61009c565b005b61006a6101dd565b6040516100779190611088565b60405180910390f35b61009a60048036038101906100959190610e1d565b6101e3565b005b816005600082815260200190815260200160002060009054906101000a900473ffffffffffffffffffffffffffffffffffffffff1673ffffffffffffffffffffffffffffffffffffffff163373ffffffffffffffffffffffffffffffffffffffff161461013e576040517f08c379a000000000000000000000000000000000000000000000000000000000815260040161013590611068565b60405180910390fd5b6005600082815260200190815260200160002060006101000a81549073ffffffffffffffffffffffffffffffffffffffff0219169055807f7cc135e0cebb02c3480ae5d74d377283180a2601f8f644edf7987b009316c63a60405160405180910390a27f1947a588e5aa577fb23b4e0af8ef2d6da335c977dc03352b69e3cf1653912e8e826040516101d09190611088565b60405180910390a1505050565b60065481565b60006102177f636139383336366363373331343935376238633031326337326630356165656230634357855e60e01b610406565b905061027b6040518060400160405280600381526020017f67657400000000000000000000000000000000000000000000000000000000008152506040518060800160405280604e81526020016115dd604e9139836104379092919063ffffffff16565b6102c56040518060400160405280600981526020017f616d6f756e745553440000000000000000000000000000000000000000000000815250858361046a9092919063ffffffff16565b61030f6040518060400160405280600981526020017f7072696365446966660000000000000000000000000000000000000000000000815250848361046a9092919063ffffffff16565b6103596040518060400160405280600381526020017f7374640000000000000000000000000000000000000000000000000000000000815250838361046a9092919063ffffffff16565b6103d86040518060400160405280600481526020017f70617468000000000000000000000000000000000000000000000000000000008152506040518060400160405280600381526020017f6665650000000000000000000000000000000000000000000000000000000000815250836104379092919063ffffffff16565b6103ff736090149792daaee9d1d568c9f9a6f6b46aa29efd8267016345785d8a000061049d565b5050505050565b61040e610cea565b610416610cea565b61042d85858584610569909392919063ffffffff16565b9150509392505050565b61044e82846080015161061990919063ffffffff16565b61046581846080015161061990919063ffffffff16565b505050565b61048182846080015161061990919063ffffffff16565b61049881846080015161063e90919063ffffffff16565b505050565b60008060045490506001816104b291906110d0565b6004819055506000634042994660e01b60008087600001513089604001518760018c60800151600001516040516024016104f3989796959493929190610f85565b604051602081830303815290604052907bffffffffffffffffffffffffffffffffffffffffffffffffffffffff19166020820180517bffffffffffffffffffffffffffffffffffffffffffffffffffffffff8381831617835250505050905061055e8683868461066e565b925050509392505050565b610571610cea565b6105818560800151610100610812565b508385600001818152505082856020019073ffffffffffffffffffffffffffffffffffffffff16908173ffffffffffffffffffffffffffffffffffffffff16815250508185604001907bffffffffffffffffffffffffffffffffffffffffffffffffffffffff191690817bffffffffffffffffffffffffffffffffffffffffffffffffffffffff191681525050849050949350505050565b610626826003835161087c565b6106398183610a0190919063ffffffff16565b505050565b67ffffffffffffffff81111561065d576106588282610a23565b61066a565b6106698260008361087c565b5b5050565b60003084604051602001610683929190610f59565b604051602081830303815290604052805190602001209050846005600083815260200190815260200160002060006101000a81548173ffffffffffffffffffffffffffffffffffffffff021916908373ffffffffffffffffffffffffffffffffffffffff160217905550807fb5e6e01e79f91267dc17b4e6314d5d4d03593d2ceee0fbb452b750bd70ea5af960405160405180910390a2600260009054906101000a900473ffffffffffffffffffffffffffffffffffffffff1673ffffffffffffffffffffffffffffffffffffffff16634000aea08685856040518463ffffffff1660e01b81526004016107799392919061100a565b602060405180830381600087803b15801561079357600080fd5b505af11580156107a7573d6000803e3d6000fd5b505050506040513d601f19601f820116820180604052508101906107cb9190610db0565b61080a576040517f08c379a000000000000000000000000000000000000000000000000000000000815260040161080190611048565b60405180910390fd5b949350505050565b61081a610d57565b6000602083610829919061143a565b146108555760208261083b919061143a565b602061084791906112f1565b8261085291906110d0565b91505b81836020018181525050604051808452600081528281016020016040525082905092915050565b60178167ffffffffffffffff16116108b3576108ad8160058460ff16901b60ff161784610a6f90919063ffffffff16565b506109fc565b60ff8167ffffffffffffffff1611610909576108e2601860058460ff16901b1784610a6f90919063ffffffff16565b506109038167ffffffffffffffff16600185610a8f9092919063ffffffff16565b506109fb565b61ffff8167ffffffffffffffff161161096057610939601960058460ff16901b1784610a6f90919063ffffffff16565b5061095a8167ffffffffffffffff16600285610a8f9092919063ffffffff16565b506109fa565b63ffffffff8167ffffffffffffffff16116109b957610992601a60058460ff16901b1784610a6f90919063ffffffff16565b506109b38167ffffffffffffffff16600485610a8f9092919063ffffffff16565b506109f9565b6109d6601b60058460ff16901b1784610a6f90919063ffffffff16565b506109f78167ffffffffffffffff16600885610a8f9092919063ffffffff16565b505b5b5b5b505050565b610a09610d57565b610a1b83846000015151848551610ab1565b905092915050565b610a4160026005600660ff16901b1783610a6f90919063ffffffff16565b50610a6b8282604051602001610a579190611088565b604051602081830303815290604052610ba0565b5050565b610a77610d57565b610a878384600001515184610bc5565b905092915050565b610a97610d57565b610aa8848560000151518585610c1c565b90509392505050565b610ab9610d57565b8251821115610ac757600080fd5b84602001518285610ad891906110d0565b1115610b0d57610b0c856002610afd88602001518887610af891906110d0565b610caa565b610b079190611297565b610cc6565b5b600080865180518760208301019350808887011115610b2c5787860182525b60208701925050505b60208410610b735780518252602082610b4e91906110d0565b9150602081610b5d91906110d0565b9050602084610b6c91906112f1565b9350610b35565b60006001856020036101000a03905080198251168184511681811785525050508692505050949350505050565b610bad826002835161087c565b610bc08183610a0190919063ffffffff16565b505050565b610bcd610d57565b83602001518310610bf357610bf28460028660200151610bed9190611297565b610cc6565b5b8351805160208583010184815381861415610c0f576001820183525b5050508390509392505050565b610c24610d57565b84602001518483610c3591906110d0565b1115610c5d57610c5c8560028685610c4d91906110d0565b610c579190611297565b610cc6565b5b6000600183610100610c6f9190611179565b610c7991906112f1565b90508551838682010185831982511617815281518588011115610c9c5784870182525b505085915050949350505050565b600081831115610cbc57829050610cc0565b8190505b92915050565b600082600001519050610cd98383610812565b50610ce48382610a01565b50505050565b6040518060a0016040528060008019168152602001600073ffffffffffffffffffffffffffffffffffffffff16815260200160007bffffffffffffffffffffffffffffffffffffffffffffffffffffffff1916815260200160008152602001610d51610d57565b81525090565b604051806040016040528060608152602001600081525090565b600081519050610d8081611597565b92915050565b600081359050610d95816115ae565b92915050565b600081359050610daa816115c5565b92915050565b600060208284031215610dc657610dc56114c9565b5b6000610dd484828501610d71565b91505092915050565b60008060408385031215610df457610df36114c9565b5b6000610e0285828601610d86565b9250506020610e1385828601610d9b565b9150509250929050565b600080600060608486031215610e3657610e356114c9565b5b6000610e4486828701610d9b565b9350506020610e5586828701610d9b565b9250506040610e6686828701610d9b565b9150509250925092565b610e7981611325565b82525050565b610e8881611343565b82525050565b610e978161134d565b82525050565b6000610ea8826110a3565b610eb281856110ae565b9350610ec28185602086016113d9565b610ecb816114ce565b840191505092915050565b610ee7610ee2826113a3565b61140c565b82525050565b6000610efa6023836110bf565b9150610f05826114f9565b604082019050919050565b6000610f1d6028836110bf565b9150610f2882611548565b604082019050919050565b610f3c81611399565b82525050565b610f53610f4e82611399565b611430565b82525050565b6000610f658285610ed6565b601482019150610f758284610f42565b6020820191508190509392505050565b600061010082019050610f9b600083018b610e70565b610fa8602083018a610f33565b610fb56040830189610e7f565b610fc26060830188610e70565b610fcf6080830187610e8e565b610fdc60a0830186610f33565b610fe960c0830185610f33565b81810360e0830152610ffb8184610e9d565b90509998505050505050505050565b600060608201905061101f6000830186610e70565b61102c6020830185610f33565b818103604083015261103e8184610e9d565b9050949350505050565b6000602082019050818103600083015261106181610eed565b9050919050565b6000602082019050818103600083015261108181610f10565b9050919050565b600060208201905061109d6000830184610f33565b92915050565b600081519050919050565b600082825260208201905092915050565b600082825260208201905092915050565b60006110db82611399565b91506110e683611399565b9250827fffffffffffffffffffffffffffffffffffffffffffffffffffffffffffffffff0382111561111b5761111a61146b565b5b828201905092915050565b6000808291508390505b60018511156111705780860481111561114c5761114b61146b565b5b600185161561115b5780820291505b8081029050611169856114ec565b9450611130565b94509492505050565b600061118482611399565b915061118f83611399565b92506111bc7fffffffffffffffffffffffffffffffffffffffffffffffffffffffffffffffff84846111c4565b905092915050565b6000826111d45760019050611290565b816111e25760009050611290565b81600181146111f8576002811461120257611231565b6001915050611290565b60ff8411156112145761121361146b565b5b8360020a91508482111561122b5761122a61146b565b5b50611290565b5060208310610133831016604e8410600b84101617156112665782820a9050838111156112615761126061146b565b5b611290565b6112738484846001611126565b9250905081840481111561128a5761128961146b565b5b81810290505b9392505050565b60006112a282611399565b91506112ad83611399565b9250817fffffffffffffffffffffffffffffffffffffffffffffffffffffffffffffffff04831182151516156112e6576112e561146b565b5b828202905092915050565b60006112fc82611399565b915061130783611399565b92508282101561131a5761131961146b565b5b828203905092915050565b600061133082611379565b9050919050565b60008115159050919050565b6000819050919050565b60007fffffffff0000000000000000000000000000000000000000000000000000000082169050919050565b600073ffffffffffffffffffffffffffffffffffffffff82169050919050565b6000819050919050565b60006113ae826113b5565b9050919050565b60006113c0826113c7565b9050919050565b60006113d282611379565b9050919050565b60005b838110156113f75780820151818401526020810190506113dc565b83811115611406576000848401525b50505050565b60006114178261141e565b9050919050565b6000611429826114df565b9050919050565b6000819050919050565b600061144582611399565b915061145083611399565b9250826114605761145f61149a565b5b828206905092915050565b7f4e487b7100000000000000000000000000000000000000000000000000000000600052601160045260246000fd5b7f4e487b7100000000000000000000000000000000000000000000000000000000600052601260045260246000fd5b600080fd5b6000601f19601f8301169050919050565b60008160601b9050919050565b60008160011c9050919050565b7f756e61626c6520746f207472616e73666572416e6443616c6c20746f206f726160008201527f636c650000000000000000000000000000000000000000000000000000000000602082015250565b7f536f75726365206d75737420626520746865206f7261636c65206f662074686560008201527f2072657175657374000000000000000000000000000000000000000000000000602082015250565b6115a081611337565b81146115ab57600080fd5b50565b6115b781611343565b81146115c257600080fd5b50565b6115ce81611399565b81146115d957600080fd5b5056fe68747470733a2f2f356561322d323030312d3561382d343630362d386530302d393162652d353734382d636135382d643338322e6e67726f6b2d667265652e6170702f636f6d707574652d666565a264697066735822122024b82192908543490b3a89f3cb54e45c3e1d05bf500a61e58909c7461d42c58b64736f6c63430008070033",
  "linkReferences": {},
  "deployedLinkReferences": {}
}